:030000000210B239
:0C10B200787FE4F6D8FD7581630210F928
:1012D200C2A5C2A78F807F057E001212E5D2A77F2A
:0312E200057E0086
:1012E500D3EF9400EE940040147D6E7C00ED1D70EC
:0D12F500011CED4C70F7EF1F70E61E80E34A
:0113020022C8
:08153300C2A61212D2C2A722C7
:08153B00D2A61212D2C2A722AF
:10129D007F381215337F0A7E001212E57F08121572
:1012AD00337F0A7E001212E57F011215337F0A7E0D
:1012BD00001212E57F061215337F0A7E001212E529
:0512CD007F0C02153347
:10138E00D3EF9400EE940040147D6E7C00ED1D7042
:0D139E00011CED4C70F7EF1F70E61E80E3A0
:0113AB00221F
:10141F00E4FEC2B70000EF1392B77D0ADDFED2B72C
:08142F00EFC313FF0EBE08EA33
:011437002292
:1013E800E4FFFEC2B700EFC313FFD2B730B7034321
:0C13F80007807D08DDFED2B70EBE08E7BE
:0114040022C5
:10125B007F0A7E00D2B700C2B77D507C00ED1D70B7
:10126B00011CED4C70F7D2B77B0A7A00EB1B7001B7
:10127B001AEB4A70F730B70AEF1FAA0670011E4A25
:10128B0070F37C007D46ED1D70011CED4C70F7D2A8
:01129B00B79B
:01129C00222F
:1012000012125B7F017E0012138E7FCC12141F7F9F
:10121000BE12141F1213E8AB077A001213E8EFFE98
:10122000EBFFEAAD07AC06120903E4FBFA7980781C
:101230003D1207F88F618E608D5F8C5EE4FFFE7D4E
:10124000207C41AB61AA60A95FA85E1207F8E4FBAD
:0A125000FAF9783F12070712093C73
:01125A002271
:10148E0012125B7FCC12141F7F4412141F7FBC7E7E
:04149E000202138EA5
:10144F0000000C0B0A040C80828486888A8C8183AE
:05145F008587898B8DDB
:10140500C2B600D2B5E4FEC2B600EF1392B400D264
:09141500B6EFC313FF0EBE08EE92
:01141E0022AB
:0D150F00C2B5121405AF05121405C2B522B5
:10143800E4FFFEC2B6EFC313FF30B403430780D204
:06144800B6000EBE08ED27
:01144E00227B
:0A152800C2B5121405121438C2B542
:011532002296
:1014A200EF75F00A84C454F0FEEF75F00A84EE255D
:0314B200F0FF2226
:0F14B500EFC4540F75F00AA4FEEF540F2EFF2260
:10132700E4FD7F8E12150FE4FCEC90144F93FF122F
:1013370014A2AD07EC90145693FF12150F000CBCC6
:0213470007E7B6
:011349002281
:10113E001347323020202D20202D202020203A2031
:10114E00203A20200015214D4F4E54554557454EFF
:10115E0054485546524953415453554E11365465D1
:0F116E006D70206861732065786365656421008A
:1013AC00D3EF9400EE940040147D6E7C00ED1D7024
:0D13BC00011CED4C70F7EF1F70E61E80E382
:0113C9002201
:07151C00EF75F00A84AFF047
:05152300EF2430FF225F
:100A200012129D1213271214C41214E230043190D2
:100A3000145DE493FF121528EF4480FD901456E4F2
:100A400093FF12150F120CADC20490145DE493FFD6
:100A5000121528EF547FFD901456E493FF12150FE2
:100A6000300308120FFF12129DC20390145DE4932D
:100A7000FF1215281214B512151C8F5890145DE43E
:100A800093FF1215281214B5EF75F00A84FF1215A2
:100A9000238F5790145EE493FF1215281214B51299
:100AA000151C8F5590145EE493FF1215281214B58F
:100AB000EF75F00A84FF1215238F5490145FE493AE
:100AC000FF1215281214B512151C8F5290145FE4F2
:100AD00093FF1215281214B5EF75F00A84FF121552
:100AE000238F51901460E493FF1215281214B5124D
:100AF000151C8F50901460E493FF1215281214B542
:100B0000EF75F00A84FF1215238F4F901461E49360
:100B1000FF1215281214B512151C8F4D901461E4A4
:100B200093FF1215281214B5EF75F00A84FF121501
:100B3000238F4C901463E493FF1215281214B512FE
:100B4000151C8F4A901463E493FF1215281214B5F4
:100B5000EF75F00A84FF1215238F497F8012153339
:100B6000E4F55A7447255AF8E6FF12153B055AE595
:100B70005AC3940A40ED7FC0121533755B0A74475F
:100B8000255BF8E6FF12153B055BE55BC39412405D
:100B9000ED7F8C121533E4F55C901462E493FF1240
:100BA00015281214B5EF75F003A4241E255CF8E691
:100BB000FF12153B055CE55CC3940340DC12148E08
:100BC0007FCC1215331212007C007D641209BD1215
:100BD000152312153B1212007C007D0A1209BD7C00
:100BE000007D0A1209BDAF0512152312153B7F2E99
:100BF00012153B1212007C007D0A1209BDAF0512CE
:100C0000152312153B1213CA121200AC06AD07E5EC
:100C10001D75F00AA4FFD3ED9FEC95F05019121248
:100C200000AC06AD07E51E75F00AA4FFC3ED9FEC0E
:070C300095F04003020A26C3
:100C37007F011215337F80121533E4F55D74362575
:100C47005DF8E6FF12153B055DE55DC3941040EDC9
:100C57007FC61215331212007C007D641209BD1283
:100C6700152312153B1212007C007D0A1209BD7C68
:100C7700007D0A1209BDAF0512152312153BB29567
:100C87007F2E12153B1212007C007D0A1209BDAFA0
:100C97000512152312153B7F887E131213AC7F01B3
:030CA700121533F0
:030CAA00020A2615
:06117D00C104C105C1061A
:04134A007F0A7E0098
:10134E00D3EF9400EE940040147D6E7C00ED1D7082
:0D135E00011CED4C70F7EF1F70E61E80E3E0
:01136B00225F
:0F14C40020900B12134A2090053090FDD2042285
:0F14D30020910B12134A2091053091FDD2052272
:061464001214C41214D39F
:0F146A0020920B12134A2092053092FDD20622D7
:100003008F618D623004030206FF1214642005031E
:100013000203BFC205E561B4070040030203BF90BA
:100023000029F828287302003E0200C402014A0294
:1000330001D00202680202EE020373901463E49398
:10004300FF1215281214B5EF2401FFE433FED3EF9A
:100053009463EE64809480400A90145CE493FFE41C
:10006300FD801A901463E493FF1215281214B5EF60
:1000730004FF1214A2AD0790145CE493FF12150F52
:10008300901463E493FF1215281214B5EF75F00A68
:1000930084AFF01215238F4A901463E493FF121573
:1000A300281214B5EF75F00A84FF1215238F49E562
:1000B30062247FFF121533AF4912153BAF4A020387
:1000C300BC901461E493FF1215281214B5EF2401B8
:1000D300FFE433FED3EF940CEE64809480400A90E7
:1000E300145AE493FF7D01801A901461E493FF1284
:1000F30015281214B5EF04FF1214A2AD0790145A79
:10010300E493FF12150F901461E493FF1215281264
:1001130014B5EF75F00A84AFF01215238F4D9014C8
:1001230061E493FF1215281214B5EF75F00A84FFEA
:100133001215238F4CE562247FFF121533AF4C1247
:10014300153BAF4D0203BC901460E493FF121528D6
:100153001214B5EF2401FFE433FED3EF941FEE64D2
:10016300809480400A901459E493FF7D01801A9093
:100173001460E493FF1215281214B5EF04FF121450
:10018300A2AD07901459E493FF12150F901460E485
:1001930093FF1215281214B5EF75F00A84AFF0120D
:1001A30015238F50901460E493FF1215281214B591
:1001B300EF75F00A84FF1215238F4FE562247FFF4A
:1001C300121533AF4F12153BAF500203BC901462AC
:1001D300E493FF1215281214B5EF2401FFE433FE54
:1001E300D3EF9407EE64809480400A90145BE49309
:1001F300FF7D01801A901462E493FF1215281214F4
:10020300B5EF04FF1214A2AD0790145BE493FF1241
:10021300150FE562247EFF121533901462E493FFF9
:100223001215281214B5EF75F003A4241EF8E6FF87
:1002330012153B901462E493FF1215281214B5EFC4
:1002430075F003A4241FF8E6FF12153B901462E433
:1002530093FF1215281214B5EF75F003A42420F8A8
:10026300E6FF0203BC90145FE493FF1215281214F7
:10027300B5EF2401FFE433FED3EF9417EE648094CB
:1002830080400A901458E493FFE4FD801A90145FB1
:10029300E493FF1215281214B5EF04FF1214A2AD54
:1002A30007901458E493FF12150F90145FE493FF23
:1002B3001215281214B5EF75F00A84AFF012152346
:1002C3008F5290145FE493FF1215281214B5EF7543
:1002D300F00A84FF1215238F51E562247FFF121564
:1002E30033AF5112153BAF520203BC90145EE4933B
:1002F300FF1215281214B5EF2401FFE433FED3EFE8
:10030300943BEE64809480400A901457E493FFE496
:10031300FD801A90145EE493FF1215281214B5EFB2
:1003230004FF1214A2AD07901457E493FF12150FA4
:1003330090145EE493FF1215281214B5EF75F00ABA
:1003430084AFF01215238F5590145EE493FF1215BA
:10035300281214B5EF75F00A84FF1215238F54E5A4
:1003630062247FFF121533AF5412153BAF558049FA
:10037300901456E493FFE4FD12150F90145DE4937B
:10038300FF1215281214B5EF75F00A84AFF0121599
:10039300238F5890145DE493FF1215281214B5EFC0
:1003A30075F00A84FF1215238F57E562247FFF122D
:1003B3001533AF5712153BAF5812153B20060302F6
:1003C3000007C206E561B40700400302000790037B
:1003D300D8F82828730203ED02045E0204D3020551
:1003E300480205CF0206400206B0901463E493FF6F
:1003F3001215281214B5EF70047F63800F901463F5
:10040300E493FF1215281214B5EF14FF1214A2ADD2
:100413000790145CE493FF12150F901463E493FFA9
:100423001215281214B5EF75F00A84AFF0121523D4
:100433008F4A901463E493FF1215281214B5EF75D5
:10044300F00A84FF1215238F49E562247FFF1215FA
:1004530033AF4912153BAF4A0206F9901461E49396
:10046300FF1215281214B5EF14C3940150047F171B
:10047300800F901461E493FF1215281214B5EF1442
:10048300FF1214A2AD0790145AE493FF12150F90B4
:100493001461E493FF1215281214B5EF75F00A8462
:1004A300AFF01215238F4D901461E493FF121528BA
:1004B3001214B5EF75F00A84FF1215238F4CE56211
:1004C300247FFF121533AF4C12153BAF4D0206F9D3
:1004D300901460E493FF1215281214B5EF14C3941B
:1004E3000150047F1F800F901460E493FF121528BE
:1004F3001214B5EF14FF1214A2AD07901459E4932C
:10050300FF12150F901460E493FF1215281214B50F
:10051300EF75F00A84AFF01215238F50901460E446
:1005230093FF1215281214B5EF75F00A84FF121504
:10053300238F4FE562247FFF121533AF4F12153B14
:10054300AF500206F9901462E493FF1215281214B7
:10055300B5EF14C3940150047F07800F901462E435
:1005630093FF1215281214B5EF14FF1214A2AD074E
:1005730090145BE493FF12150FE562247EFF1215BE
:1005830033901462E493FF1215281214B5EF75F03B
:1005930003A4241EF8E6FF12153B901462E493FFB4
:1005A3001215281214B5EF75F003A4241FF8E6FF03
:1005B30012153B901462E493FF1215281214B5EF41
:1005C30075F003A42420F8E6FF0206F990145FE413
:1005D30093FF1215281214B5EF70047F17800F9044
:1005E300145FE493FF1215281214B5EF14FF1214CD
:1005F300A2AD07901458E493FF12150F90145FE413
:1006030093FF1215281214B5EF75F00A84AFF01298
:1006130015238F5290145FE493FF1215281214B51B
:10062300EF75F00A84FF1215238F51E562247FFFD3
:10063300121533AF5112153BAF520206F990145EF7
:10064300E493FF1215281214B5EF70047F3B800F5B
:1006530090145EE493FF1215281214B5EF14FF12E1
:1006630014A2AD07901457E493FF12150F90145E74
:10067300E493FF1215281214B5EF75F00A84AFF056
:100683001215238F5590145EE493FF12152812144C
:10069300B5EF75F00A84FF1215238F54E562247FAA
:1006A300FF121533AF5412153BAF558049901456C2
:1006B300E493FFE4FD12150F90145DE493FF12150C
:1006C300281214B5EF75F00A84AFF01215238F5872
:1006D30090145DE493FF1215281214B5EF75F00A18
:1006E30084FF1215238F57E562247FFF121533AF62
:0D06F3005712153BAF5812153B02000722AD
:100CAD00E4F55FF560200403020F33C204740325DD
:100CBD0060F560E4F55EE5602480FF1215337F5F1B
:100CCD0012153B7FF47E0112134EE5602480FF1256
:100CDD0015337F2012153B7FF47E0112134E121433
:100CED0064200418200503300609AD60AF5F1200C3
:100CFD00038009055EE55EC3940540BAE55FB40760
:100D0D00004003020F06900D1AF8282873020D2FCC
:100D1D00020D70020DB1020DF2020E45020E85029A
:100D2D000EC5901463E493FF1215281214B5EF75D8
:100D3D00F00A84AFF01215238F4A901463E493FFE9
:100D4D001215281214B5EF75F00A84FF1215238FB2
:100D5D0049E560247FFF121533AF4912153BAF4AA9
:100D6D00020F03901461E493FF1215281214B5EFCE
:100D7D0075F00A84AFF01215238F4D901461E49332
:100D8D00FF1215281214B5EF75F00A84FF12152302
:100D9D008F4CE560247FFF121533AF4C12153BAF1E
:100DAD004D020F03901460E493FF1215281214B531
:100DBD00EF75F00A84AFF01215238F50901460E494
:100DCD0093FF1215281214B5EF75F00A84FF121552
:100DDD00238F4FE560247FFF121533AF4F12153B64
:100DED00AF50020F03E560247EFF1215339014629D
:100DFD00E493FF1215281214B5EF75F003A4241E09
:100E0D00F8E6FF12153B901462E493FF12152812B9
:100E1D0014B5EF75F003A4241FF8E6FF12153B90EF
:100E2D001462E493FF1215281214B5EF75F003A4A4
:100E3D002420F8E6FF020F0390145FE493FF1215D0
:100E4D00281214B5EF75F00A84AFF01215238F52E6
:100E5D0090145FE493FF1215281214B5EF75F00A84
:100E6D0084FF1215238F51E560247FFF121533AFD8
:100E7D005112153BAF52807E90145EE493FF121514
:100E8D00281214B5EF75F00A84AFF01215238F55A3
:100E9D0090145EE493FF1215281214B5EF75F00A45
:100EAD0084FF1215238F54E560247FFF121533AF95
:100EBD005412153BAF55803E90145DE493FF12150F
:100ECD00281214B5EF75F00A84AFF01215238F5860
:100EDD0090145DE493FF1215281214B5EF75F00A06
:100EED0084FF1215238F57E560247FFF121533AF52
:100EFD005712153BAF5812153B055FE55FB407035D
:100F0D00E4F55FE56024F2601124C76013243E60B0
:100F1D0003020CB275600B020CB275603E020CB28E
:060F2D00E4F560020CB2C5
:010F3300229B
:10118300C103C100C102C1011508414C41524D20A8
:0F1193002050414E454C2054483A20544C3A00CD
:04136C007F0A7E0076
:10137000D3EF9400EE940040147D6E7C00ED1D7060
:0D138000011CED4C70F7EF1F70E61E80E3BE
:01138D00223D
:0F14E20020B00B12136C20B00530B0FDD20322E6
:0F14F10020B10B12136C20B10530B1FDD20022D7
:0F15000020B20B12136C20B20530B2FDD20222C2
:061479001214F11215002F
:0F147F0020B30B12136C20B30530B3FDD2012242
:04130300AD1EAF1D4F
:101307008F628D6312125B7FCC12141F7F4E1214F3
:101317001FAF6212141FAF6312141F7F7F02141FC7
:1013CA0012125B7FCC12141F7FBE12141F1213E875
:0E13DA001213E81213E88F1D1213E88F1E2263
:100F34008F61300003020FFE12147930025BC2028B
:100F44001213CAE56124F960252407704C051D12AB
:100F540013031213CAE56124C5FF121533E51D7589
:100F6400F00A84FF12152312153BE51D801F051E90
:100F74001213031213CAE56124C5FF121533E51ECB
:100F840075F00A84FF12152312153BE51E75F00A4D
:100F940084AFF012152312153B300196C2011213CF
:100FA400CAE56124F9602524077087151D1213030F
:100FB4001213CAE56124C5FF121533E51D75F00A45
:100FC40084FF12152312153BE51D801F151E1213F5
:100FD400031213CAE56124C5FF121533E51E75F02B
:100FE4000A84FF12152312153BE51E75F00A84AF1F
:0B0FF400F012152312153B020F3622ED
:1011A3008055300057C200E4F55FE56024C6FF12A6
:1011B30015337F5F12153B7FF47E01121370E560D8
:1011C30024C6FF1215337F2012153B7FF47E0112D4
:1011D3001370121479200016200203300107AF6048
:1011E300120F348009055FE55FC3940540BC7407A3
:0C11F3002560F560B40EABE4F56080A64A
:0111FF0022CD
:100FFF00C2037F011215331213CA3003030210A567
:10100F007F82121533E4F55E7408255EF8E6FF1251
:10101F00153B055EE55EC3940C40ED7FC2121533A0
:10102F00755E0D7408255EF8E6FF12153B055EE54B
:10103F005EC3941040EDE51D75F00A84FF12152371
:10104F0012153BE51D75F00A84AFF012152312152A
:10105F003B7FC9121533755E117408255EF8E6FFE4
:10106F0012153B055EE55EC3941440EDE51E75F069
:10107F000A84FF12152312153BE51E75F00A84AF83
:10108F00F012152312153B3000031211A31214E2B4
:10109F001214F102100912125B7FCC12141F7F4839
:0310AF0002141F09
:100700000209A8E86480F8E933E83360110460F076
:10071000ED33EC337009E8FCE9FDEAFEEBFF22045F
:1007200060DED3EB9FEA9EE99DE8C2E78CF0C2F75A
:1007300095F0400CE8CCF8E9CDF9EACEFAEBCFFB26
:1007400012097385D0F05804700320D5B3E8047003
:10075000075002B2D50209B292D5EC0460F7E4CC9E
:10076000C0E0C398F8603B94186008400DD0E0FBEF
:1007700002098AE4FBFAC9FC8028E830E406E4C9EF
:10078000FBE4CAFCE830E305E4C9CACBFCE8540743
:100790006010F8C3E913F9EA13FAEB13FBEC13FC4E
:1007A000D8F130F52FC3E49CFCEF9BFFEE9AFEEDF1
:1007B00099FDD0E0FBEF4E4D4C701222DB03020995
:1007C000AFEC2CFCEF33FFEE33FEED33FDED30E705
:1007D000EB02098AEF2BFFEE3AFEED39FDD0E0FB8C
:1007E00050130BBB00030209B2ED13FDEE13FEEF35
:0807F00013FFEC13FC02098A5F
:1007F800EC4D6011E8497017ED33EC3304600DE4FB
:10080800FCFFFEFD22E933E8330470F80209A81260
:10081800097358046009E4CC248150062850090261
:1008280009B22840030209AFC0E0EB4A7044B9801E
:1008380006D0E0FB02099EEF4E701CBD8008EBFF5E
:10084800EAFEE9FD80EBE98DF0A4FEE5F00208E19F
:10085800E9CDF9EAFEEBFFEF89F0A4FCE5F0CE89DB
:10086800F0A42EFFE435F0CD89F0A42DFEE435F098
:100878008067EF4E7005BD80D780C3EF8BF0A4ACC6
:10088800F0EE8BF0A42CFCE435F0F8EF8AF0A42C01
:10089800E5F038FCE433CB8DF0A42CFCE5F03BF814
:1008A800EE8AF0A42CFCE5F038F8E433CF89F0A404
:1008B8002CFCE5F038CF3400CE89F0A42FFFE5F00A
:1008C8003EFEE433C98DF0A42EFEE5F039CD8AF062
:1008D800A42FFFE5F03EFEE43DFD33D0E0FB5007DA
:1008E8000BBB000F0209B2EC2CFCEF33FFEE33FE1A
:0608F800ED33FD02098A48
:1008FE0075F020800E75F010800575F0087D007E75
:10090E00007F003392D530D503120A12EC3340101B
:10091E00EF33FFEE33FEED33FDEC33FCD5F0ED227D
:0E092E00E5F0247EA2D513CC92E7CDCEFF22B9
:10093C00EDD2E7CD33EC3392D524814006E4FFFEB3
:10094C00FDFC22FCE4CFCECDCC24E0501174FF8012
:10095C00EDC3CC13CCCD13CDCE13CECF13CF0470AF
:07096C00F030D5DE020A1293
:10097300E9D2E7C933E833F892D5EDD2E7CD33ECCA
:0709830033FC5002B2D52243
:10098A00EC30E7100FBF000C0EBE00080DBD0004CE
:10099A000BEB6014A2D5EB13FCED92E7FD2274FF7A
:1009AA00FCFDFEFF22E480F8A2D574FF13FC7D80D3
:0309BA00E480EFE7
:1010BE00020A20E493A3F8E493A34003F68001F21E
:1010CE0008DFF48029E493A3F85407240CC8C33333
:1010DE00C4540F4420C8834004F456800146F6DF02
:1010EE00E4800B010204081020408090113EE47E43
:1010FE00019360BCA3FF543F30E509541FFEE493F7
:10110E00A360010ECF54C025E060A840B8E493A3BD
:10111E00FAE493A3F8E493A3C8C582C8CAC583CAE8
:10112E00F0A3C8C582C8CAC583CADFE9DEE780BEA0
:0111A200004C
:1009BD00BC000BBE0029EF8DF084FFADF022E4CC1E
:1009CD00F875F008EF2FFFEE33FEEC33FCEE9DECE7
:1009DD00984005FCEE9DFE0FD5F0E9E4CEFD22ED2D
:1009ED00F8F5F0EE8420D21CFEADF075F008EF2F77
:1009FD00FFED33FD4007985006D5F0F222C398FD68
:050A0D000FD5F0EA2204
:0E0A1200C3E49FFFE49EFEE49DFDE49CFC22F5
:00000001FF
